:020000040000fa
:080000000002040000000000f2
:020000040000fa
:040008009e04000052
:020000040000fa
:04000c0044030000a9
:020000040000fa
:040010008603000063
:020000040000fa
:040014006403000081
:020000040000fa
:04001800a60300003b
:020000040000fa
:04001c009e0400003e
:020000040000fa
:040020009e0400003a
:020000040000fa
:040024009e04000036
:020000040000fa
:040028009e04000032
:020000040000fa
:04002c009e0400002e
:020000040000fa
:040030009e0400002a
:020000040000fa
:040034009e04000026
:020000040000fa
:040038009e04000022
:020000040000fa
:04003c009e0400001e
:020000040000fa
:040040009e0400001a
:020000040000fa
:040044009e04000016
:020000040000fa
:040048009e04000012
:020000040000fa
:04004c009e0400000e
:020000040000fa
:040050009e0400000a
:020000040000fa
:040054002204000082
:020000040000fa
:04005800c6030000db
:020000040000fa
:04005c009e040000fe
:020000040000fa
:040060009e040000fa
:020000040000fa
:040064009e040000f6
:020000040000fa
:040068009e040000f2
:020000040000fa
:04006c009e040000ee
:020000040000fa
:040070009e040000ea
:020000040000fa
:040074009e040000e6
:020000040000fa
:040078009e040000e2
:020000040000fa
:04007c009e040000de
:020000040000fa
:040080009e040000da
:020000040000fa
:040084009e040000d6
:020000040000fa
:040088009e040000d2
:020000040000fa
:04008c009e040000ce
:020000040000fa
:040090009e040000ca
:020000040000fa
:040094009e040000c6
:020000040000fa
:040098009e040000c2
:020000040000fa
:04009c009e040000be
:020000040000fa
:0400a0009e040000ba
:020000040000fa
:0400a4009e040000b6
:020000040000fa
:0400a8009e040000b2
:020000040000fa
:0400ac009e040000ae
:020000040000fa
:0400b0009e040000aa
:020000040000fa
:0400b4009e040000a6
:020000040000fa
:0400b8009e040000a2
:020000040000fa
:0400bc009e0400009e
:020000040000fa
:0400c0009e0400009a
:020000040000fa
:0400c4009e04000096
:020000040000fa
:0400c8009e04000092
:020000040000fa
:0400cc009e0400008e
:020000040000fa
:0400d0009e0400008a
:020000040000fa
:0400d4009e04000086
:020000040000fa
:0400d8009e04000082
:020000040000fa
:0400dc009e0400007e
:020000040000fa
:0400e0009e0400007a
:020000040000fa
:0400e4009e04000076
:020000040000fa
:0400e8009e04000072
:020000040000fa
:0400ec009e0400006e
:020000040000fa
:0400f0009e0400006a
:020000040000fa
:0400f4009e04000066
:020000040000fa
:0400f8009e04000062
:020000040000fa
:0400fc009e0400005e
:020000040000fa
:040100009e04000059
:020000040000fa
:040104009e04000055
:020000040000fa
:040108009e04000051
:020000040000fa
:04010c009e0400004d
:020000040000fa
:040110009e04000049
:020000040000fa
:040114009e04000045
:020000040000fa
:040118009e04000041
:020000040000fa
:04011c009e0400003d
:020000040000fa
:040120009e04000039
:020000040000fa
:040124009e04000035
:020000040000fa
:040128009e04000031
:020000040000fa
:04012c008804000043
:020000040000fa
:040130009e04000029
:020000040000fa
:040134009e04000025
:020000040000fa
:040138009e04000021
:020000040000fa
:04013c009e0400001d
:020000040000fa
:040140009e04000019
:020000040000fa
:040144009e04000015
:020000040000fa
:040148009e04000011
:020000040000fa
:04014c009e0400000d
:020000040000fa
:040150009e04000009
:020000040000fa
:040154009e04000005
:020000040000fa
:040158009e04000001
:020000040000fa
:04015c009e040000fd
:020000040000fa
:040160009e040000f9
:020000040000fa
:040164009e040000f5
:020000040000fa
:040168009e040000f1
:020000040000fa
:04016c009e040000ed
:020000040000fa
:040170009e040000e9
:020000040000fa
:040174009e040000e5
:020000040000fa
:040178009e040000e1
:020000040000fa
:04017c009e040000dd
:020000040000fa
:040180009e040000d9
:020000040000fa
:040184009e040000d5
:020000040000fa
:040188009e040000d1
:020000040000fa
:04018c009e040000cd
:020000040000fa
:040190009e040000c9
:020000040000fa
:040194009e040000c5
:020000040000fa
:040198009e040000c1
:020000040000fa
:04019c009e040000bd
:020000040000fa
:0401a0009e040000b9
:020000040000fa
:0401a4009e040000b5
:020000040000fa
:0401a8009e040000b1
:020000040000fa
:0401ac009e040000ad
:020000040000fa
:0401b0009e040000a9
:020000040000fa
:0401b4009e040000a5
:020000040000fa
:0401b8009e040000a1
:020000040000fa
:0401bc009e0400009d
:020000040000fa
:0401c0009e04000099
:020000040000fa
:0401c4009e04000095
:020000040000fa
:0401c8009e04000091
:020000040000fa
:0401cc009e0400008d
:020000040000fa
:0401d0009e04000089
:020000040000fa
:0401d4009e04000085
:020000040000fa
:0401d8009e04000081
:020000040000fa
:0401dc009e0400007d
:020000040000fa
:0401e0009e04000079
:020000040000fa
:0401e4009e04000075
:020000040000fa
:0401e8009e04000071
:020000040000fa
:0401ec009e0400006d
:020000040000fa
:0401f0009e04000069
:020000040000fa
:0401f4009e04000065
:020000040000fa
:0401f8009e04000061
:020000040000fa
:0401fc009e0400005d
:020000040000fa
:040208009e04000050
:020000040000fa
:04020c0044030000a7
:020000040000fa
:040210008603000061
:020000040000fa
:04021400640300007f
:020000040000fa
:04021800a603000039
:020000040000fa
:04021c009e0400003c
:020000040000fa
:040220009e04000038
:020000040000fa
:040224009e04000034
:020000040000fa
:040228009e04000030
:020000040000fa
:04022c009e0400002c
:020000040000fa
:040230009e04000028
:020000040000fa
:040234009e04000024
:020000040000fa
:040238009e04000020
:020000040000fa
:04023c009e0400001c
:020000040000fa
:040240009e04000018
:020000040000fa
:040244009e04000014
:020000040000fa
:040248009e04000010
:020000040000fa
:04024c009e0400000c
:020000040000fa
:040250009e04000008
:020000040000fa
:040254002204000080
:020000040000fa
:04025800c6030000d9
:020000040000fa
:04025c009e040000fc
:020000040000fa
:040260009e040000f8
:020000040000fa
:040264009e040000f4
:020000040000fa
:040268009e040000f0
:020000040000fa
:04026c009e040000ec
:020000040000fa
:040270009e040000e8
:020000040000fa
:040274009e040000e4
:020000040000fa
:040278009e040000e0
:020000040000fa
:04027c009e040000dc
:020000040000fa
:040280009e040000d8
:020000040000fa
:040284009e040000d4
:020000040000fa
:040288009e040000d0
:020000040000fa
:04028c009e040000cc
:020000040000fa
:040290009e040000c8
:020000040000fa
:040294009e040000c4
:020000040000fa
:040298009e040000c0
:020000040000fa
:04029c009e040000bc
:020000040000fa
:0402a0009e040000b8
:020000040000fa
:0402a4009e040000b4
:020000040000fa
:0402a8009e040000b0
:020000040000fa
:0402ac009e040000ac
:020000040000fa
:0402b0009e040000a8
:020000040000fa
:0402b4009e040000a4
:020000040000fa
:0402b8009e040000a0
:020000040000fa
:0402bc009e0400009c
:020000040000fa
:0402c0009e04000098
:020000040000fa
:0402c4009e04000094
:020000040000fa
:0402c8009e04000090
:020000040000fa
:0402cc009e0400008c
:020000040000fa
:0402d0009e04000088
:020000040000fa
:0402d4009e04000084
:020000040000fa
:0402d8009e04000080
:020000040000fa
:0402dc009e0400007c
:020000040000fa
:0402e0009e04000078
:020000040000fa
:0402e4009e04000074
:020000040000fa
:0402e8009e04000070
:020000040000fa
:0402ec009e0400006c
:020000040000fa
:0402f0009e04000068
:020000040000fa
:0402f4009e04000064
:020000040000fa
:0402f8009e04000060
:020000040000fa
:0402fc009e0400005c
:020000040000fa
:040300009e04000057
:020000040000fa
:040304009e04000053
:020000040000fa
:040308009e0400004f
:020000040000fa
:04030c009e0400004b
:020000040000fa
:040310009e04000047
:020000040000fa
:040314009e04000043
:020000040000fa
:040318009e0400003f
:020000040000fa
:04031c009e0400003b
:020000040000fa
:040320009e04000037
:020000040000fa
:040324009e04000033
:020000040000fa
:040328009e0400002f
:020000040000fa
:04032c008804000041
:020000040000fa
:040330009e04000027
:020000040000fa
:040334009e04000023
:020000040000fa
:040338009e0400001f
:020000040000fa
:04033c009e0400001b
:020000040000fa
:040340009e04000017
:020000040000fa
:040344009e04000013
:020000040000fa
:040348009e0400000f
:020000040000fa
:04034c009e0400000b
:020000040000fa
:040350009e04000007
:020000040000fa
:040354009e04000003
:020000040000fa
:040358009e040000ff
:020000040000fa
:04035c009e040000fb
:020000040000fa
:040360009e040000f7
:020000040000fa
:040364009e040000f3
:020000040000fa
:040368009e040000ef
:020000040000fa
:04036c009e040000eb
:020000040000fa
:040370009e040000e7
:020000040000fa
:040374009e040000e3
:020000040000fa
:040378009e040000df
:020000040000fa
:04037c009e040000db
:020000040000fa
:040380009e040000d7
:020000040000fa
:040384009e040000d3
:020000040000fa
:040388009e040000cf
:020000040000fa
:04038c009e040000cb
:020000040000fa
:040390009e040000c7
:020000040000fa
:040394009e040000c3
:020000040000fa
:040398009e040000bf
:020000040000fa
:04039c009e040000bb
:020000040000fa
:0403a0009e040000b7
:020000040000fa
:0403a4009e040000b3
:020000040000fa
:0403a8009e040000af
:020000040000fa
:0403ac009e040000ab
:020000040000fa
:0403b0009e040000a7
:020000040000fa
:0403b4009e040000a3
:020000040000fa
:0403b8009e0400009f
:020000040000fa
:0403bc009e0400009b
:020000040000fa
:0403c0009e04000097
:020000040000fa
:0403c4009e04000093
:020000040000fa
:0403c8009e0400008f
:020000040000fa
:0403cc009e0400008b
:020000040000fa
:0403d0009e04000087
:020000040000fa
:0403d4009e04000083
:020000040000fa
:0403d8009e0400007f
:020000040000fa
:0403dc009e0400007b
:020000040000fa
:0403e0009e04000077
:020000040000fa
:0403e4009e04000073
:020000040000fa
:0403e8009e0400006f
:020000040000fa
:0403ec009e0400006b
:020000040000fa
:0403f0009e04000067
:020000040000fa
:0403f4009e04000063
:020000040000fa
:0403f8009e0400005f
:020000040000fa
:0403fc009e0400005b
:020000040000fa
:10040000eff920000e7f22000e018800000000009e
:10041000000020000000e000020032000001200087
:100420002002880014000700950107000000e0008a
:1004300003003a002053250001002000020037008d
:100440000000200001002000810f70000100320038
:1004500014000700000020000000e000020032004d
:100460000000020000000000f2580200000000003e
:100470000040da000000fe004440a900c0592000fe
:100480000000e000030032000020200090018800fe
:100490004440a800000006008a1f78008b1f7800e7
:1004a00000000600a1028800800478000000eb0034
:1004b0001f003700e284440054a0b4009905ba003c
:1004c000e284440054a0b4009906ba00e2844400d7
:1004d00054a0b4000006eb00476fde00fd07b20039
:1004e000ae018800636ce10003003a00eaff0700f8
:1004f0000000eb000e003700606ce10008003a00dd
:10050000004deb000a05e800020039003420ec0041
:100510000af0a0008b05e900f9ff3e000400370057
:100520006168e100010032000086eb000b0007006b
:1005300019c7ba001905ba000e04e00003003a001a
:100540000a00e000dbff3a0000000600fe07b200f0
:10055000ae0288008a047800f5ff37000cd0a300b3
:10056000e20f4d001c00390089027800354dba00b9
:100570000a05e800020039003420ec000af0a0006f
:100580008b05e9000f003200254dba000a05e8008e
:10059000020039003420ec000af0a0008b05e900cd
:1005a000080032000c00e0000600320015cdba0051
:1005b0000a05e800020039003420ec000af0a0002f
:1005c0008b05e9008984e80054a0b4000b00e0002a
:1005d000e2ff3a00000006009902ba00055d7800cb
:1005e0008b05e900f7ff3200c82ade00055d7800c0
:1005f0008b05e900f3ff32000c00e000f1ff320050
:1006000019ddba00eeff3700ec53040000000000d3
:10061000c0580400000000004a540400000000001c
:100620006454040000000000965404000000000020
:10063000c454040000000000f45404000000000052
:1006400000550400000000002655040000000000d2
:100650000a55040000000000ca5804000000000011
:10066000704f0400000000008e4f040000000000e6
:10067000e205040000000000e20f0400000000009a
:1006800000000400000000003600f800809fbe005b
:10069000829fbe00849fbe00869fbe000000fa00bd
:1006a0008020a9000000eb00062b07000080fa0064
:1006b0004f03be004f02be004f01be004f00be0000
:1006c0003600f900004006003600f800809fbe00aa
:1006d000829fbe00849fbe00869fbe000000fa007d
:1006e000fd2a07008040a90010002000f52a07001d
:1006f0000080fa004f03be004f02be004f01be0053
:100700004f00be003600f900004006003600f80039
:10071000809fbe00829fbe00849fbe00869fbe0059
:100720000000fa008060a90020002000e52a0700f0
:100730000080fa004f03be004f02be004f01be0012
:100740004f00be003600f900004006003600f800f9
:10075000809fbe00829fbe00849fbe00869fbe0019
:100760000000fa008080a90030002000d52a070090
:100770000080fa004f03be004f02be004f01be00d2
:100780004f00be003600f900004006003600f800b9
:10079000809fbe00829fbe00849fbe00869fbe00d9
:1007a0000000fa00e040800000000100c14080002d
:1007b000b0408000808f500002003a009580a90070
:1007c000190037008580a90010003700c040800064
:1007d000904078008180fb00212888000000e8001c
:1007e000c0408800c140800010f72000808f50007a
:1007f00002003a0080f62000c0408800c14080001e
:10080000b0408000808f5000060032001128800028
:1008100000202000008060000000e000ebff3200bc
:1008200001003700000000000080fa004f03be0006
:100830004f02be004f01be004f00be003600f9005f
:10084000004006003600f800809fbe00829fbe0078
:10085000849fbe00869fbe000000fa00f04080002a
:10086000000001008560a9001e0037009040800054
:100870003128800081407800014878009140800054
:1008800090f72000808f50000900320090408000d7
:100890008000e800a0408000808f500004003200fb
:1008a000904080000000e800904088000d00370074
:1008b0009140800090f72000808f500007003a00a0
:1008c000a140800010f72000808f5000030032000c
:1008d00010f72000904088000200370010c0b300dd
:1008e0001ae8b70010288000610060000000e000f6
:1008f000deff3a000080fa004f03be004f02be0048
:100900004f01be004f00be003600f9000040060057
:10091000801f78000000fa0010288000620060004c
:100920000000e000010032000225a9008c20a9008f
:100930000080fa004f007800004006000040da0016
:100940000000fe000a00fa0011002000b1bf9f0065
:10095000c0bf9f006a8057004f0607004fb897003e
:100960000080fa00000006000a00fa005100200092
:10097000b1bf9f00c0bf9f006a80570048060700b4
:100980005fb897000080fa0000000600889fbe0054
:1009900080047800e07c80000000e00004003a0061
:1009a0000e0007000084eb000000e00008003500a6
:1009b000e87c80000900e0000500320009004400e6
:1009c000060007000000e00001003d000084eb008d
:1009d000080078004f04be00000006008000780088
:1009e0000100e00003003a0000002000e07c8800e5
:1009f000000005000080eb0002002000828f500004
:100a000002003e00e17c88000000eb0000000600d0
:100a10000a00fa0020079800310798004207980062
:100a2000be009000110798000000eb00000f780056
:100a30000c00370000000000712507000004a20030
:100a40000004e000fcff3a001e0090001040780017
:100a50009e0090008100e8001107980048250700db
:100a60001e0fe8004e0090009e007800808f50001e
:100a7000f0ff39004e0090000080fa0000000600f0
:100a8000000005006022b800060220000000d0002f
:100a90008180d2000482d2008582d2000000a000b2
:100aa0000202520083825a00030031000202420017
:100ab00083824a000000a1000603e900f3ff3a0028
:100ac000000006008001780002003700b15978006c
:100ad0000201e9000200e000fcff3a00000006000d
:100ae0008001780002003700815978000201e90096
:100af0000200e000fcff3a0000000600c1ea20000e
:100b000045020700800078000080eb000100e00053
:100b100004003500c1ea2000a00020000200070008
:100b20004f80de0000000600889fbe008a1f78000c
:100b30000004be00c900900069009000808f500042
:100b4000060039000900780097020700800078004d
:100b50000080eb000100e000170035000845780038
:100b60004900900008587800c004980019007800e7
:100b700000b8a30004003a0000a8a3000800320057
:100b8000ea4f540006003a0009007800e701070028
:100b9000800078000080eb000100e00006003a00d1
:100ba00000c02000190060000200320049009000df
:100bb000e00498000a80fb004f0578004f04be0057
:100bc00000000600881f7800020478000801780001
:100bd000bcff0700080040004f047800000006003a
:100be0000000fa00881f780000047800ea815700ae
:100bf0003fb9970088007800205e200007000700ba
:100c00000000e000020035008040eb000174780035
:100c10004f0478000080fa00000006006200fa002d
:100c2000889fbe008a1f7800000578008104780044
:100c3000020478008300780080f92f000f00400044
:100c40008b0407009a979f00a9979f000000eb0074
:100c5000b09f9f001885fb008a04fb000a05ea008c
:100c60004f55de0050022000808f54000d003200ee
:100c7000e10f55000b003a000a0178008800780067
:100c80002f9097009f91970003000100a0979f006d
:100c90000000e0008e0032003f9897000000e8005e
:100ca000b09f9f000a04440050022000808f54002f
:100cb000040032000900e000e6ff3a003f98970088
:100cc000840037000000eb00909f9f00809f9f00f2
:100cd000f0979f00e0979f00d0979f00c0979f00dc
:100ce0000700370021f620000100500000004000fe
:100cf00061f5200061007800df9897000100700026
:100d0000d09f9f0088047800090478003845780057
:100d10008a00fb0020f62000070207000000e00028
:100d2000f0ff3a00a1c2b300814f55000e003a0017
:100d3000cf8897000180e900c08f9f0010007800e5
:100d4000c09f9f000000e00005003d000000ea0099
:100d5000c09f9f005f9897000020a000d09f9f0039
:100d60000904e8000f003700c09f9f000000eb005f
:100d700005003700f2ff2700820f5000020032000a
:100d80006a01b900028040000904780088047800f4
:100d9000b900fb000103b100e98f5000f5ff3600f8
:100da000c09f9f00e0c2b300984f100002003200c5
:100db0000080eb0019003700a0c2b300d84f10002c
:100dc00007003a00cf8897000180e900c08f9f009c
:100dd00010007800a09f9f000804e8001000370072
:100de0000000eb00a09f9f008800780005003700fe
:100df000f3ff2700830f5000020032006a02b9009f
:100e00000400410001047800880078003101fb00f3
:100e10000203b100e90f5100f5ff3600a09f9f00cb
:100e2000984478008900fb00e0f42000c20107002c
:100e30000000e000020032000804e8000100370072
:100e40008044eb00c97f9f0080c6b30080cf540070
:100e500004003a0098cf14000a003a00664050009f
:100e600006003700c0c6b30080cf540005003a002a
:100e700098cf140003003a0065404000c07f9f00f7
:100e80000804e8001801fb00e3fb2f008f814100fc
:100e900081f92f008f804000a0f92f000f00400043
:100ea000100007000000e00009003a00e1fb2f00fd
:100eb0008f804000a0f92f000f0040003003070092
:100ec0000000e000020035000804e80061ff370080
:100ed0000080eb004f0578004f04be000080fa0050
:100ee00000000600889fbe008a9fbe00e4c6b300d3
:100ef000844f5100be00320010003c006b42520093
:100f0000844f51001800320005003c0054c2b30069
:100f1000844f5100f600320084c5b3000f00370043
:100f200044c6b300844f51001400320065424200b1
:100f3000844f5100f1003a001000370004c7b3009d
:100f4000844f5100dd0032005600350065424200fa
:100f5000844f51005300320063424200844f5100dd
:100f6000e6003a004f0037001181e900820878005e
:100f7000f000900012417800de00370020629000ff
:100f8000c5c6b300854f520007003a0091027800b1
:100f900064825200840878001402be004fabde0069
:100fa000860378001400370015c7b300854f520040
:100fb00003003a001104780068025400050037006d
:100fc000a5c6b300854f520006003a009104780090
:100fd00068825400840878005403be004402be00b6
:100fe000050037001182e9008408780014027800b7
:100ff000cfa2de00612bb9000498be000690be00af
:10100000a060900088c6b30088cf50000d00320069
:1010100028c6b30088cf500004003a000402fb0049
:10102000cfa2de00612bb9000800370048c7b3002b
:1010300088cf5000030032006644440088cf50003f
:1010400004003a00cfa2de00612bb9000498be0074
:101050000690be003002be002003be00f0009000eb
:10106000e00f5200e08f5a00e00f5b00e08f5b0062
:1010700002003d00d4c2b300080037000012900007
:101080000418a30002003200b4c2b300030037000a
:101090000408a3005100320004c2b30084f17800b8
:1010a0004c00370020629000c5c6b300854f520047
:1010b00008003a00110578006402550084087800a1
:1010c0001404be006055b8000802be000a03be004a
:1010d0001400370015c7b300854f520003003a00d3
:1010e000910478006882540005003700a5c6b3005b
:1010f000854f520006003a0011057800680255003d
:10110000840878005403be004402be000500370086
:101110001182e90084087800140278008002eb0054
:101120006033b8000498be000690be00a060900036
:1011300088c6b30088cf50000d00320028c6b30027
:1011400088cf500004003a000482fb008002eb00cc
:101150006033b8000800370048c7b30088cf50009c
:10116000030032006644440088cf500004003a0077
:101170008002eb006033b8000498be000690be0009
:10118000801090000138a300140032003002be002d
:101190002003be00e00f5200e08f5a00e00f5b001a
:1011a000e08f5b000d00320081c7b300814f51001a
:1011b0000300320081c5b300814f510007003a009f
:1011c000f000900004c3b30084f178008100e800cf
:1011d00082f178008100e80071009800f000900032
:1011e0008181410063009800824078003e00370012
:1011f000a0619000c4c6b3001181e90084cf510002
:10120000220032000a003c006442520084cf5100a8
:101210002500320004c2e80084cf510013003200e0
:101220006842520084cf51001e003a000a00370085
:1012300044c7b30084cf51001b0032006642420015
:1012400084cf5100180032006942520084cf51000f
:1012500014003a00050037008208780092007800f8
:1012600040589000804878002c00370082087800b1
:1012700092007800600a9000cfa2de00612bb900d6
:101280008498be008690be00240037008208780053
:101290009200780060099000cf91de008288be0045
:1012a0001e0037001181e900820878009200780062
:1012b0006008900080087800180037001181e9006c
:1012c0008208780012027800cfa2de00612bb900fc
:1012d0000498be000690be00f0009000818141009d
:1012e0006300980081c7b300f60007000b003700c9
:1012f000f000900082f1780006003700f0009000c6
:10130000818141000204e00001003a0052c2b300b2
:10131000824978008100e800710098000000eb002d
:101320004f05be004f04be0000000600889fbe00af
:101330008a1f7800000478000800e0000d003a00e1
:10134000a8ef2000700544008004eb0058007800ee
:101350000000e00004003200f4ff07000000e0009d
:1013600001003d008084eb008a0f5400f7ff3a0033
:101370002500370000002200180060008004eb0008
:1013800021003200a80490000f003700090151002d
:10139000384090000000fb00890078009cfd0700a9
:1013a0000000e00007003c00280090004004980086
:1013b00060049800500c98001890a0008084eb0006
:1013c000110037008084440048019000828f54004f
:1013d000eeff390028009000400498009800780043
:1013e00002c020000281600001003a003800900035
:1013f00001e8a300020032006004980001003700f9
:10140000500c98008004eb00090078004f0578002c
:101410004f04be0000000600889fbe008a9fbe00e9
:1014200080047800010478002c003700c800900088
:1014300068009000808f5000040039000800780098
:10144000590007000000e000370035000040200090
:101450001800600009003200a10020000900780097
:1014600047000700800578000b00e0000300320011
:10147000618514000a8545000400370009007800e2
:1014800039000700000578008005eb004800900057
:10149000e8009000808050008a8f500002003100e8
:1014a000010578008005eb000a01780089007800ca
:1014b00084fd0700480090000a00400040049800a6
:1014c0000b00e000040032000800780097ff0700de
:1014d0000000e00014003a008a8444001904e0008f
:1014e000d2ff3a00008020001800600006003200a1
:1014f000080078008dff0700800078000080eb0076
:101500000100e00009003a0001c02000988060005e
:101510000000eb00050032004800900060049800d5
:101520000000eb00010037000080eb004f05be001b
:101530004f04be0000000600020037000304e00074
:10154000060032000001780002007800b041780007
:1015500081cf5100f9ff3a00010037000001eb0094
:101560000200780000000600800078000101780089
:101570003104e000fdff3a000000510000000600c9
:101580000001eb0000027800b041780081cf5100eb
:1015900001003a00040178000304e000f9ff3a007a
:1015a0000200780000000600889fbe008a1f7800b5
:1015b00000047800c8009000680190000000eb0073
:1015c000828f50003c00390018007800220029006a
:1015d00002016000e20f51000700320001202400e8
:1015e0000000e00001003d0001202000008c7000a0
:1015f0000080eb003000370002002600020060008f
:10160000820f500009003a0038009000808f50008f
:10161000060039000800780044ff070080007800c9
:101620000080eb000100e00023003a00180578007c
:1016300000c020000000650018003a00a8049000d7
:101640006002200008004000808f540013003a0020
:1016500000202000dc020700200498000000e000c9
:1016600005003a0029049800490498008904e8001c
:1016700039049800080037000a60a0000a0c7800be
:101680004004980001202000808040003104980030
:10169000400c9800500c9800f901070028009000b9
:1016a0005004980038009000600498000000260064
:1016b000180c70000000eb004f0578004f04be00ce
:1016c00000000600fc874700889fbe008a9fbe007e
:1016d0008c9fbe008e1f78000006780080c5b30086
:1016e00080cf50000a0032007740400080cf500089
:1016f0000a0032006940400080cf50000b003200e9
:10170000d0f1200080bf9f00ae0020000a0037000b
:10171000c2f0200082bf9f0006003700d3f12000f6
:1017200083bf9f008e00200003003700d4f120000b
:1017300084bf9f000e0120003c02be002c03be00af
:101740000605be000404be0040c6b30080cf5000b2
:10175000030032006540400080cf50000b003a008b
:10176000e00f5200e08f5a00e00f5b00e08f5b005b
:1017700006003d006000b8006011b800040450008d
:10178000858458000605590087855900e80f5700e1
:101790000400320040002000f00f570038003a00eb
:1017a0000100370030002000e00f5400e08f5c00a3
:1017b000e00f5d00e08f5d0004003a00dc0890005f
:1017c0008d0120000100e000060032008e00e900db
:1017d000888060008fba9700e5c07800f1ef9f0025
:1017e0007d012000800078008100e90005003300c1
:1017f0008b05d1000a85d3008984d3000884d300e7
:10180000f9ff3700089ebe000a96be00120037009e
:101810008d06e9008e00e900848060000fb9970012
:10182000e2c1780082fd2f000f01410003f17e002c
:10183000800078008100e900050033008783d10033
:101840000683d3008582d3000482d300f9ff3700da
:10185000049ebe000696be003c02be002c03be00e5
:10186000e00f5200e08f5a00e00f5b00e08f5b005a
:101870008b0034000d00e000e5ff3c0088003700dd
:101880002c60900081c6b300814f50000b003200e5
:1018900006003c000004e00008003200e6c05000f2
:1018a000814f50004e003a0004003700c1c6b3001b
:1018b000814f50004a003a00210037000800e00044
:1018c00004003a005c0890008d0120000000e00058
:1018d00006003200110009000e84d8000fb99700ed
:1018e000e2c07800f1ef9f007d01200011000900a7
:1018f0000e84d8000a003700110009000e04d80039
:101900008d06e9000e81b900020454008fb89700db
:1019100061417c0081fd2f008f80400082f07e00bd
:10192000000478000800e000020032000d00e00032
:10193000f1ff3c00cfc4de00614db9002500370047
:10194000e00f5400e08f5c0004003a005c08900057
:101950008d0120000000e000070032006171b90035
:101960000800be005f0207008fb99700e3417800ce
:10197000f3ef9f007d0120006171b9000800be00f7
:1019800040fc07000b0037006171b9000800be0081
:10199000450207008d06e90000f1b9000204540079
:1019a0000fba9700e4427c0084fd2f000f02420032
:1019b00005f27e000004be00e00f5000e08f5800ea
:1019c000020032000d00e000efff3c004fcdde00d2
:1019d0008a057800089ebe000a96be0030003700d7
:1019e000e00f5400e08f5c00e00f5d00e08f5d00d1
:1019f00004003a005c0890008d0120000000e00027
:101a0000090032006172b900612bb9000800be0004
:101a10000a01be00dc0207000fba9700644278009a
:101a2000f4ef9f007d0120006172b900612bb900c5
:101a30000800be000a01be00cc0207000d003700fe
:101a40006172b900612bb9000800be000a01be0036
:101a5000d10207008d06e90000f2b9000404540029
:101a60008fba970065427c0085fd2f008f8242006f
:101a700084f27e00009ebe000296be003c04be00c2
:101a80002c05be00e00f5400e08f5c00e00f5d000d
:101a9000e08f5d00020034000d00e000e8ff3c0034
:101aa000e80f570010003a000c1090000038a30017
:101ab0000d003200f78f560006003e0085fd2f0016
:101ac0008f824200e5c07e0000c3b30080cf50008b
:101ad000050032008d06e90002c3b30081fd2f002e
:101ae0008f80400082f07e0078811600120e9800f0
:101af0006c00900083fd2f008f8141008d8041009c
:101b0000f0fb07001c089000dc089000810f5000db
:101b100006003d0000805000000e98000c10900060
:101b20000040a100001698000f0037000100e000ff
:101b30000d003d008c109000f4806000f08f50008c
:101b400009003a007c099000fc00900081005100df
:101b50000c09900082805000008050004240a90093
:101b600001003400000e98004f0778004f06be00b9
:101b70004f05be004f04be00cf01b10000000600bb
:101b80000400fa00889fbe008a9fbe008c1f780068
:101b90000004780001067800f80d900078009000ad
:101ba0008085550008089000808555001808900031
:101bb00080855500280890008085550038089000e1
:101bc000808555004808900080855500000222005d
:101bd00090bf9f0000032300a0bf9f00081090004b
:101be0000028a30015003a000b00e00013003400a9
:101bf0000b0578008a047800e20f550001003600da
:101c000029002000c801900009017800ee805700eb
:101c10005800900003000100500498000000e0000c
:101c20008c0032006808900009004000600c9800a9
:101c3000090555004240a900eeff3c0078019000e4
:101c40000200e0000c003400c80190008c00780015
:101c50005800900003000100500498008080eb00c1
:101c60000000e0007c003200e8089000780090005e
:101c700000804000600c9800880c90000900e00093
:101c80001100340009057800e28f5400010036008d
:101c90002a002000c80190000a017800ec8057005b
:101ca0005800900003000100500498000000e0007c
:101cb00068003200680890000a004000600c98003c
:101cc0008a845400edff3700180990000200e000fc
:101cd0000c003400c8019000e8009000580090000b
:101ce00003000100500498008080eb000000e00039
:101cf00059003200e8089000180890000080400069
:101d0000600c9800a80c90000900e000110034005d
:101d100009057800e28f5400010036002a002000f7
:101d2000c80190000a017800ec805700580090002c
:101d300003000100500498000000e000450032005c
:101d4000680890000a004000600c98008a845400e3
:101d5000edff3700380990000200e0000e0034006b
:101d6000e80090001808900080804000c8019000b2
:101d70005800900003000100500498008080eb00a0
:101d80000000e00034003200e808900038089000bd
:101d900000804000600c9800c80c90000900e00032
:101da0001100340009057800e28f5400010036006c
:101db0002a002000c80190000a017800ec8057003a
:101dc0005800900003000100500498000000e0005b
:101dd00020003200680890000a004000600c980063
:101de0008a845400edff3700081090008000eb005b
:101df0000028a300180032000b00e0001600340099
:101e00008b04780009057800e28f54000100360049
:101e10002a002000c80190000a017800ee805700d7
:101e20005800900003000100500498000000e000fa
:101e300008003200680890000a004000600c98001a
:101e40008a8454004240a900eeff3c008000eb0071
:101e5000010037008080eb00010078004f06780019
:101e60004f05be004f04be000080fa0000000600cf
:101e7000010878000000060020fe20006100370005
:101e8000881f780088f920001804e00003003a0059
:101e9000f9ff070020c0b300004c78004f04780021
:101ea00000000600889fbe0000047800080078004b
:101eb0001efd070080047800000420001800600068
:101ec00002003200280090005a0007000000eb00da
:101ed00020049800384090000004e0000500350020
:101ee0000000fb0097fa07000000e000010032004c
:101ef0008084eb00181090000000e0000800320021
:101f000099fa07000000e000010032008084eb0035
:101f100018109000470007000000eb001014980014
:101f20000008200018006000150032000001eb00de
:101f30006000b800c3ef20000202d00063027a0004
:101f4000880f520005003a000000400081804800e0
:101f5000008041000008eb000600370061004000ef
:101f6000e08048000201e800e80f5000e08f5800d0
:101f7000f0ff3a00080078002e0007000e0037003e
:101f8000000c780000c0eb00304498006002200094
:101f90000800400020049800400498005004980075
:101fa000400c980060049800500c98007004980051
:101fb00076004400000c9800090078004f04be0031
:101fc00000000600881f78000004eb006140b800a4
:101fd000e2ff2f00f3ff2f00c5000700a2f0200052
:101fe000620078000000e00001003200adff070051
:101ff0000804e800e80f5400f4ff3a004f047800aa
:1020000000000600010020000100e000080032008e
:10201000010080000100e000050032008100e900bd
:10202000010088008100d0000200800000b178002b
:10203000000006000000e0002f003200c001780020
:10204000e38f51002c0036000308a3002a003a0059
:10205000b17c80000100e00002003200810f5000de
:102060000400310011009800b07c88001600370091
:1020700082007800110190000200e00002003200ae
:10208000800f5100faff390011027800848240006d
:10209000850f500018003900808f520003003a006d
:1020a0008308420001007800070037000200e000ca
:1020b0000300320083014000830f51000e003900fd
:1020c0001200980090009800900090000100e0003d
:1020d0000900320010014000828f500006003a00d3
:1020e00042f920000009eb001001780011084100be
:1020f000910090001100980000000600889fbe002b
:1021000000047800a17c80000100e00002003200a1
:10211000010078000d003700b17c800060f92000dc
:1021200004003700910f5400250036000180e800bc
:10213000910090000100e000faff3a001000370023
:10214000920f54001e0036000280e8001001780053
:102150000200e000faff3a0011017800b17c800033
:1021600060f9200004003700910f5400140036007d
:102170000180e80091009000828f5000faff3a0041
:10218000d97c8000888f54000100310088047800d9
:1021900009007800360007000000e00004003a0063
:1021a000888f5400050032008904d100f5ff370004
:1021b000091878009fff0700d2ff37000000eb00ee
:1021c0004f04be0000000600881f78006304400032
:1021d0000800a1008000eb00800f540021003600b1
:1021e000e30f540001003e00480020000800780082
:1021f000c2ff07008000eb000000e0001900320081
:10220000900078009101780064815100880f51009e
:102210000300310011019000020878000700370028
:102220000881400002087800910190001301980095
:102230001001780011091400880878001001780056
:102240000000eb000200e000040032009201900068
:102250000300e000010032000280e800a07c88005a
:102260008180e800010078004f047800000006003b
:10227000800078000000eb000100e0000500340061
:1022800001007800c1f90700e10f400001003a00a9
:102290000000eb000000060000c0da0000000600ad
:1022a00000c0da0000000600839f68000100e00023
:1022b00002003d0060001000e08018000300e00014
:1022c00002003d0060011100e0811900edf90700f6
:1022d0004f00e00002003b0060001000e0801800aa
:1022e00000000600e7f907000400be000000060039
:1022f000020ab900001bb9000200b80081004200c8
:102300008100430000000600889fbe008a9fbe0037
:1023100030044200b0844a0030054b0090854b00e9
:102320006000b1000898be000a90be000440e100c1
:1023300005c8e10006d0e10007d8e1000200310045
:10234000680040001008e8004f05be004f04be00c2
:1023500000000600889fbe008a9fbe003004be00b9
:102360002005be000418540005985c0006185d00a6
:1023700007985d00110020000440e10005c8e1005d
:1023800006d0e10007d8e100010039008000eb0031
:10239000108810004f05be004f04be00000006006c
:1023a0001200fa00889fbe008a9fbe008c9fbe006c
:1023b000e0b79f00f1b79f0082bf9f0093bf9f00cf
:1023c0000605be000404be000000eb00d0b79f006d
:1023d000c0b79f00b0b79f00a0b79f0090b79f0005
:1023e000000678005fb19700cfb0970082014100ee
:1023f0003fb097000200e00004003d0037000700f6
:102400007e805700c0ff070003003700330007003d
:102410007e805700cfff0700dfb697000d00e00079
:102420000c0035006fb29700ffb297000fbb97000a
:102430009fbb970010002000010020006011b80031
:1024400000027200818272000203730083837300b2
:102450001b0007000c06e80001042000810f560055
:10246000e0ff3a000d00e00004003d000802be005d
:102470000a03be007e805700a3ff07005fa89700f5
:102480000000e00005003a001fb29700afb29700cd
:102490003fb39700cfb39700090007006fb09700d4
:1024a000ffb097000fb997009fb997004f06be0085
:1024b0004f05be004f04be000080fa000000060079
:1024c0000100070000000600a4b79f00b5b79f00f9
:1024d000c6b79f00d7b79f00000006004f09de0077
:1024e00082817100b3b79f004f01de008180400000
:1024f00082807000a1b79f008fb097004f09de0067
:10250000000040000200700090b79f007fa8970075
:102510004f01de00818040008280700081b79f0003
:102520000d0007004f3ade0000004000040070007c
:10253000f0af9f00080007000402420085824a00b5
:1025400006034b0087834b00dfff07000802be0035
:102550000a03be00000006002fb29700bfb297002a
:102560004fb39700dfb3970000000600881f780084
:1025700018002000881f780089ff07008f87e90076
:102580004f04780000000600801feb0084ff070066
:102590008f87e90000000600889fbe008a9fbe006a
:1025a000e00f5000e08f5800e00f5900e08f590015
:1025b0000c003d006044b8006055b80000005400b5
:1025c00081805c0002015d0083815d0018002000b5
:1025d0001500070008003d00180007000004eb008c
:1025e000050037000004eb000f00070002003d006b
:1025f0001200070018002000dcff07000800e000c0
:10260000060032006022b8006033b80000005200bb
:1026100081805a0002015b0083815b004f05be0090
:102620004f04be0000000600e00f5200e08f5a0089
:10263000e00f5b00e08f5b00000006006044b80024
:102640006055b8000402540085825c0006035d00fa
:1026500087835d0000000600889fbe008a9fbe0041
:102660008c1f7800e00f5000e08f5800e00f5900f9
:10267000e08f59000d003d006044b8006055b8007f
:102680000000540081805c0002015d0083815d00d8
:102690001c0020000820e10009a8e1000ab0e100c8
:1026a0000bb8e1000d003d00080037000006eb000c
:1026b000e00f5200e08f5a00e00f5b00e08f5b00fc
:1026c00006003d006044b8006055b80004025400a4
:1026d00085825c0006035d0087835d00aaff07001a
:1026e0000c00e000060032006022b8006033b80041
:1026f0000000520081805a0002015b0083815b0070
:102700004f0678004f05be004f04be0000000600d3
:020000040000fa
:10271000c7000000fc000000e9000000e20000002b
:10272000e4000000e0000000e5000000e700000019
:10273000ea000000eb000000e8000000ef000000ed
:10274000ee000000ec000000c4000000c500000026
:10275000c9000000e6000000c6000000f400000010
:10276000f6000000f2000000fb000000f90000008d
:10277000ff000000d6000000dc000000a200000006
:10278000a3000000a5000000a720000092010000a7
:10279000e1000000ed000000f3000000fa0000007e
:1027a000f1000000d1000000aa000000ba00000003
:1027b000bf00000010230000ac000000bd000000be
:1027c000bc000000a1000000ab000000bb00000046
:1027d00091250000922500009325000002250000ad
:1027e0002425000061250000622500005625000018
:1027f00055250000632500005125000057250000e5
:102800005d2500005c2500005b2500001025000010
:1028100014250000342500002c2500001c25000094
:10282000002500003c2500005e2500005f2500001b
:102830005a25000054250000692500006625000087
:1028400060250000502500006c2500006725000071
:10285000682500006425000065250000592500005a
:102860005825000052250000532500006b2500006c
:102870006a250000182500000c25000088250000ae
:10288000842500008c250000902500008025000094
:10289000b1030000df00000093030000c00300004c
:1028a000a3030000c3030000b5000000c403000040
:1028b000a603000098030000a9030000b403000071
:1028c0001e220000c6030000b503000029220000fc
:1028d00061220000b10000006522000064220000b7
:1028e0002023000021230000f70000004822000000
:1028f000b000000019220000b70000001a220000fa
:102900007f200000b2000000a0250000a000000011
:10291000610000001a030000e0000000170300003f
:10292000f800000007030000ff00000001000000a5
:1029300078010000000100003001000032010000b9
:102940000601000039010000100100004a010000ea
:102950002e01000079010000060100008001000046
:102960004d000000430200008101000082010000d0
:102970008201000084010000840100008601000043
:102980008701000087010000890100008a01000022
:102990008b0100008b0100008d0100008e01000002
:1029a0008f010000900100009101000091010000e2
:1029b0009301000094010000f60100009601000060
:1029c0009701000098010000980100003d020000fe
:1029d0009b0100009c0100009d01000020020000fe
:1029e0009f010000a0010000a0010000a201000062
:1029f000a2010000a4010000a4010000a601000043
:102a0000a7010000a7010000a9010000aa01000021
:102a1000ab010000ac010000ac010000ae01000001
:102a2000af010000af010000b1010000b2010000e1
:102a3000b3010000b3010000b5010000b5010000c2
:102a4000b7010000b8010000b8010000ba010000a1
:102a5000bb010000bc010000bc010000be01000081
:102a6000f7010000c0010000c1010000c201000028
:102a7000c3010000c4010000c5010000c401000042
:102a8000c7010000c8010000c7010000ca01000022
:102a9000cb010000ca010000cd01000010010000c0
:102aa000dd010000010000008e010000de010000d9
:102ab00012010000f301000003000000f10100001a
:102ac000f4010000f4010000f801000028010000fa
:102ad00022020000120100003a020000090000007a
:102ae000652c00003b0200003b0200003d0200009c
:102af000662c00003f02000040020000410200007e
:102b000041020000460200000a01000053020000da
:102b10004000000081010000860100005502000015
:102b2000890100008a010000580200008f010000a6
:102b30005a020000900100005c0200005d020000eb
:102b40005e0200005f0200009301000061020000cd
:102b500062020000940100006402000065020000af
:102b60006602000067020000970100009601000065
:102b70006a020000622c00006c0200006d0200007e
:102b80006e0200009c010000700200007102000053
:102b90009d01000073020000740200009f0100000c
:102ba000760200007702000078020000790200003f
:102bb0007a0200007b0200007c020000642c00000e
:102bc0007e0200007f020000a601000081020000da
:102bd00082020000a90100008402000085020000ba
:102be0008602000087020000ae01000044020000df
:102bf000b1010000b2010000450200008d0200009a
:102c00008e0200008f02000090020000910200007e
:102c1000b70100007b03000003000000fd0300007b
:102c2000fe030000ff030000ac03000004000000ee
:102c30008603000088030000890300008a03000067
:102c4000b103000011030000c203000002000000f5
:102c5000a3030000a3030000c40300000803000056
:102c6000cc030000030000008c0300008e03000072
:102c70008f030000d803000018010000f2030000d9
:102c80000a000000f9030000f3030000f403000051
:102c9000f5030000f6030000f7030000f70300004f
:102ca000f9030000fa030000fa03000030040000fa
:102cb0002003000050040000100700006004000022
:102cc000220100008a04000036010000c104000057
:102cd0000e010000cf04000001000000c00400004d
:102ce000d00400004401000061050000260400003b
:102cf000000000007d1d000001000000632c0000aa
:102d0000001e000096010000a01e00005a010000f5
:102d1000001f000008060000101f0000060600004b
:102d2000201f000008060000301f000008060000f9
:102d3000401f000006060000511f000007000000b1
:102d4000591f0000521f00005b1f0000541f0000ad
:102d50005d1f0000561f00005f1f0000601f000085
:102d600008060000701f00000e000000ba1f0000df
:102d7000bb1f0000c81f0000c91f0000ca1f0000c1
:102d8000cb1f0000da1f0000db1f0000f81f00004f
:102d9000f91f0000ea1f0000eb1f0000fa1f0000ef
:102da000fb1f0000801f000008060000901f0000ad
:102db00008060000a01f000008060000b01f000069
:102dc00004000000b81f0000b91f0000b21f00007f
:102dd000bc1f0000cc1f000001000000c31f00004a
:102de000d01f000002060000e01f000002060000e5
:102df000e51f000001000000ec1f0000f31f0000b1
:102e000001000000fc1f00004e2100000100000036
:102e10003221000070210000100200008421000017
:102e20000100000083210000d02400001a050000ea
:102e3000302c00002f040000602c00000201000074
:102e4000672c000006010000752c00000201000044
:102e5000802c000064010000002d00002608000006
:102e600041ff00001a030000000000000103000001
:102e700005070000090e00001012000014160000e3
:102e8000181c00001e8000009a450000418e0000c2
:102e9000418f000080450000454500004949000081
:102ea000498e00008f900000929200004f99000020
:102eb0004f55000055590000999a00009b9c000056
:102ec0009d9e00009f410000494f000055a5000055
:102ed000a5a60000a7a80000a9aa0000abac0000ae
:102ee000adae0000afb00000b1b20000b3b400005e
:102ef000b5b60000b7b80000b9ba0000bbbc00000e
:102f0000bdbe0000bfc00000c1c20000c3c40000bd
:102f1000c5c60000c7c80000c9ca0000cbcc00006d
:102f2000cdce0000cfd00000d1d20000d3d400001d
:102f3000d5d60000d7d80000d9da0000dbdc0000cd
:102f4000ddde0000dfe00000e1e20000e3e400007d
:102f5000e5e60000e7e80000e9ea0000ebec00002d
:102f6000edee0000eff00000f1f20000f3f40000dd
:102f7000f5f60000f7f80000f9fa0000fbfc00008d
:102f8000fdfe0000ff2200002a3a00003c3e000047
:102f90003f7c00007f0000002b2c00003b3d000028
:102fa0005b5d000000460000415400000046000048
:102fb0004154000033320000000000000000000017
:102fc000950000000000000000000000010000006b
:102fd000f9000000000000000000000008000000f0
:102fe000870000000400000000000000090000004d
:102ff000af00000000000000010000000a00000017
:103000001b00000000000000010000000c00000098
:10301000c300000001000000000000000d000000df
:10302000af000000020000000000000010000000df
:10303000ff00000000000000000000001100000080
:10304000ff0000000000000001000000120000006e
:10305000ff00000000000000010000001800000058
:10306000ff00000000000000010000001900000047
:10307000ff00000000000000010000002000000030
:10308000ff00000000000000000000002100000020
:10309000ff0000000000000000000000260000000b
:1030a000df00000001000000000000003700000009
:1030b0007300000000000000000000003a00000063
:1030c0002500000004000000000000003b0000009c
:1030d00025000000000000000000000029000000a2
:1030e000ff000000040000000000000017000000c6
:1030f000ff00000000000000000000004865000024
:103100006c6c00006f200000576f0000726c0000b4
:103110006420000025640000200000004c6f0000c7
:103120006764000061740000656900005f250000ad
:10313000642e00005458000054000000303a000093
:10314000004c00006f6700006461000074650000bf
:10315000692e0000545800005400000000000000d8
:10316000000000000000000000000000000000005f
:10317000000000000000000000000000000000004f
:10318000000000000000000000000000000000003f
:10319000000000000000000000000000000000002f
:1031a0000000000000000000ec530000c0580000c8
:1031b0004a5400006454000096540000c4540000b7
:1031c000f454000000550000265500000a55000088
:1031d000ec530000ca5800004a5400006454000038
:1031e00096540000c4540000f45400000055000040
:1031f000265500000a550000534400002d4b0000e6
:1032000061720000746500002047000065730000d3
:10321000636800007269000065620000656e00006e
:103220000d00000060000000000000000000000031
:1032300060000000130000000000000020010000fa
:083240003f0000000000000047
:020000040000fa
:103248000400fa00100798001e0090000000e80033
:10325800104078000080fb00000f78001e00780006
:10326800c800dd001e009000104078000080fb00c0
:10327800008f70001e0078000080fa000000060031
:103288000600fa00200798002e0090006300400016
:10329800104078000080fb008000eb00008fbe002b
:1032a8001e00be004809dd00c801de008301710070
:1032b8004801dd002e0090000080e80010407800f2
:1032c8000080fb008000eb00001f71000197710077
:1032d8001e00be004809dd00c801de008301710040
:1032e8004801dd002e0090000000e8001040780042
:1032f8000080fb008000eb00001f71000197710047
:103308001e00be004809dd00c801de00830171000f
:103318004801dd002e009000104078000080fb007e
:103328008000eb00001f7100019771001e00be00b5
:103338000080fa00000006000400fa00000f780080
:10334800110798001e009000804078001e00780049
:10335800014878001e0fe8001e0090004800de00bb
:10336800100798001e009000804078001e0078002a
:10337800014878001e0fe8000080fa0000000600ef
:103388000600fa00000f780012079800230798003b
:103398001e009000804078001e00780001487800e8
:1033a8001e0fe8001e009000ae0090004809dd00e6
:1033b8004800de0000007100c808de001007980011
:1033c800210798001e009000804078001e007800b9
:1033d800014878001e0fe8001e009000ae00900023
:1033e8004809dd004800de0000007100c808de0062
:1033f80010079800210798001e0090008040780070
:103408001e007800014878001e0fe8001e0090009a
:10341800ae0090004809dd004800de0000007100a1
:10342800c808de0010079800210798001e009000c9
:10343800804078001e007800014878001e0fe800e0
:103448000080fa00000006000a00fa002007980031
:103458003107980042079800ae009000010f7800ed
:10346800be009000110798004e0090000000e00098
:103478000e0032001e009000904078001e00780078
:10348800014878001e0fe8001e0090000000e800c8
:10349800100798004e0090000000e90040079800cf
:1034a8004e0090000000e000f2ff3a000080fa00b1
:1034b800000006000800fa0010079800210798008d
:1034c800320798009e009000010f78002e009000af
:1034d800804078001e007800014878001e0fe80040
:1034e8003e0090000000e900300798003e00900080
:1034f8000000e000f5ff3a000080fa000000060036
:103508000c00fa003007980041079800520798000d
:10351800be009000010f7800ce00900011079800bf
:103528000000eb00200798001e007800104078008b
:103538008080fb001e009000104078000080fb0097
:1035480000805000200798001e0fe8001e00900021
:103558000000e800100798005e0090000000e900f5
:10356800500798005e0090000000e0000300320061
:103578002e0090000000e000ebff32002e009000cb
:103588000080fa00000006000400fa00000f78002e
:1035980011079800010037001e0fe8001e00780090
:1035a800104078000004e000060032001e00780099
:1035b800104078008000fb001e009000808f5000b3
:1035c800f5ff3a001e007800104078000000fb006c
:1035d8000080fa00000006000200fa00004f7800a0
:1035e8001e4078000004e000020032000000eb00fa
:1035f800010037000000eb000080fa000000060020
:103608000200fa00004f78001e4078000004e00035
:10361800020032000000eb00010037000000eb0060
:103628000080fa00000006000c00fa00500798001d
:103638005e009000100f78001e007800104078009f
:103648000080fb00100798001e0fe8001e00900085
:1036580000407800e0ff07000000e00011003200a1
:103668001e00780010407800404798001e0fe800c0
:103678004e409000e2ff07000000e00003003a001f
:103688000080eb008080eb001b0037001e009000dc
:10369800c800dd004e4090000080fb000080400024
:1036a800100798001e0090000000e0000a00320099
:1036b800511b20001e009000a01b07001007980057
:1036c8001e0090000000e00003003a000080eb00bc
:1036d8008080eb00080037001e0090008000eb009f
:1036e80030079800410798005e0090001e08780097
:1036f8003e009000ce0090000080fa000000060016
:103708000a00fa001007980021079800320798006d
:1037180043079800521b20001e009000ae00900046
:103728004f1b0700000f7800f00f20009e00780064
:10373800808f5000160036004e009000e10f5000b8
:1037480002003e000040eb00210037001e00780018
:103758004800de00804078003e0090000148780074
:103768003e0090000000e800300798001e00780036
:10377800804078003e009000014878003e009000ac
:103788000000e8003007980020c0b30010003700a0
:103798001e0078000000e000030032004e00900098
:1037a8000000e00002003a000040eb00080037008b
:1037b8001e007800804078003e00900001487800a4
:1037c8003e0090000000e8003007980010c0b300e9
:1037d8000080fa00000006000400fa0010079800b4
:1037e8000000eb00000f78001e00900030409000b1
:1037f8000004e000390032001e009000a01890007c
:10380800101890001e019000660320000203430078
:103818001e01900092429000140020000001be009a
:1038280086007800054078005f1d07000000e00072
:1038380028003a001e0090008040eb0031409800bc
:103848001e00900010199000a01990001e00900012
:10385800c010900030109000000151008181590083
:103868001e0090008010900070089000800f51009a
:10387800818f5900190031001e00900020409000ef
:10388800e24f500015003a001e00900010199000f9
:10389800a01990001e009000801090007008900001
:1038a80002004000838048001e019000660320004b
:1038b800020343001e019000924290001400200071
:1038c8000001be008600780005407800361d07001c
:1038d8000200370010002000000f78001e0078005a
:1038e8000080fa00000006000800fa00100798009f
:1038f80022079800330798000000eb00000f7800bb
:103908001e00900010199000a01990002e00900041
:10391800be009000800f5100818f59001c003200ba
:103928001e009000acff0700000f78001e00780012
:103938000000e00016003a001e009000610320001d
:10394800808040001e00900010409000140020006d
:103958002e019000be019000f61c07000000e00058
:10396800060032000080eb008080eb002007980002
:103978003107980010002000000f78001e0090000a
:103988002e019000be01900012189800231898008c
:103998001e0078000080fa00000006000400fa000b
:1039a800100798001e0090008bff0700000f78009a
:1039b8001e0078000000e0004e003a001e00900053
:1039c80010407800e34f500041003a001e0090007c
:1039d80040409000e14f50003d003a001e0090002a
:1039e8006003b000022020008000eb00b1fe070059
:1039f8001e0090004023b00051a52a004efe07008b
:103a08001e0090006003b000222525001316240034
:103a18005bfe07001e009000a021b00022272700af
:103a28001314260056fe07001e009000a008900000
:103a3800100890001e019000e421200002024200bc
:103a48000001be00040078004dfe07001e00900033
:103a580080089000700090001e0190002422200031
:103a6800020242000001be000400780044fe070084
:103a78001e009000a01090001010900061004000ff
:103a8800e08048001e019000101998002119980044
:103a98001e009000a0189000101890001e019000c1
:103aa80066032000020343001e019000924290002a
:103ab800140020000001be00860078000540780050
:103ac800b91c07001e0090008040eb0041409800a0
:103ad8001e009000104090000001eb008040eb00b9
:103ae800ce1c07000000e000020032001000200099
:103af800000f78001e0078000080fa000000060021
:103b08000600fa00000f78001207980023079800b3
:103b18001e009000ae00900062005000e080580047
:103b280010079800210798001e007800e008900010
:103b38005008900062015000e08158001e0090007b
:103b4800ae009000800f5100818f590002003e00a6
:103b58006000b800130037001e0078007012900053
:103b6800801a90001e007800500090008000eb0042
:103b78001e0190000191b90002017800ae01900089
:103b8800009bb90086017800030141009e01900066
:103b98000018b800010141008200780004004000cc
:103ba800858048000080fa00000006001000fa0036
:103bb8005007980062079800730798005e0090000d
:103bc80090007800210798006e019000fe01900097
:103bd8001000200001002000800f5100818f590043
:103be800080036002e00900050099000e00990006f
:103bf8006e009000fe009000800f5100818f5900e8
:103c080004003e001000200001002000008fbe00cc
:103c1800b10037000080eb008080eb00008fbe0011
:103c28002e009000104078000080fb00e20f50004a
:103c380057003200e30f500072003200e10f5000cd
:103c48009a003a006e029000340798003e009000f7
:103c58000000d100be0090000080400030079800ae
:103c68002e00900030119000c01190003e0090008e
:103c78004900de008000eb0002004000838048001d
:103c88000001be002e00900017ff07000000e000b2
:103c98008a003a00be009000f01f200000806000fb
:103ca800ae0090006003b000614078000080fb0027
:103cb800400798003e0090000000e8003007980098
:103cc8002e00900030119000c01190003e0090002e
:103cd8004900de008000eb000200400083804800bd
:103ce8000001be002e009000fffe07000000e0006b
:103cf80074003a00be009000f01f200000806000b1
:103d0800ae0090006003b000614078000080fb00c6
:103d18004800dd00ce0090000100700040079800c8
:103d28006e00900061006000004078000004e00030
:103d3800040032004e0090004400de006101b8002b
:103d4800110037004e0090006101b800f0ff20001c
:103d58000100200002027800030178008001780049
:103d68000100780003026200000061008000eb009f
:103d7800c000dd00000020000001be006120b80086
:103d88000001710081817100028fbe00520037006e
:103d98002e00900030119000c01190006e0090002d
:103da800fe009000480add004800de0000007200b6
:103db800c808de0002004000838048000001be0001
:103dc8002e009000c8fe07000000e0003f003a0007
:103dd8002e00900061032000808040006e0090005b
:103de8000000400000017800f01f20000000610082
:103df8000080400012fd07008000eb00008fbe002d
:103e0800350037002e00900030119000c01190004e
:103e18006e009000fe009000490add004700de00b9
:103e280000007200c708de000200400083804800de
:103e38000001be002e009000abfe07000000e0006d
:103e480024003a002e00900061032000808040008a
:103e58006e0090004201dd00f01f200000006100ac
:103e68000080400006fd07000001be00f0ff2f00a3
:103e7800f1ff200002027800830178000001780039
:103e88000100780002016200008061008000eb0000
:103e9800c000dd0000002000008fbe006110b800e7
:103ea8001e1f70001e9770000b00370010002000c6
:103eb80001002000008fbe0007003700000000004e
:103ec8000500370000000000030037000000000074
:103ed80001003700000000001e00be000080fa004c
:103ee800000006001000fa00889fbe003007980006
:103ef80042079800530798006407980075079800d0
:103f080020002000000f78004e019000de01900094
:103f18001000200001002000800f5100818f5900ff
:103f2800f70036003e00900050099000e00990002c
:103f38004e009000de009000800f5100818f5900e4
:103f4800ef0036003e009000104078000080fb0033
:103f5800e20f500073003200e30f5000920032006d
:103f6800e10f5000e6003a00ce00900011079800db
:103f78001e0090000000d1009e00900000804000cc
:103f8800100798003e00900030119000c01190007a
:103f98001e0090004900de008000eb000200400097
:103fa800838048000001be003e0090004efe0700de
:103fb800000f78001e0078000000e000c9003a00f9
:103fc8003e00900061032000808040001e019000a8
:103fd800f01f2000000061000080400020079800ca
:103fe8001e0090000000e800100798004e009000a6
:103ff80061006000004078000004e0000a00320020
:104008002e00900010407800ef4060006e00900095
:10401800004078000080fb004400dd00004078008c
:1040280000c07000020037006e0090000040780069
:10403800ae009000804878003e00900011c0b300a8
:10404800314098003e00900030119000c01190005f
:104058001e0090004900de008000eb0002004000d6
:10406800838048000001be003e0090001efe07004d
:10407800000f78001e0078000000e0009b003a0066
:104088003e00900061032000808040001e019000e7
:10409800f01f200000006100008040002007980009
:1040a8004e00900061006000004078000004e000cd
:1040b800080032006e009000fe0090004c09dd0000
:1040c8004400de0000007100c408de0000407800f3
:1040d8000e0037002e0090001040780080407800d5
:1040e80000cfb30000c160006e009000fe00900099
:1040f800c809dd004800de0000807100c808de0045
:10410800004078006f40600000407100ae009000f1
:10411800804878003e00900011c0b30031409800fc
:10412800770037003e00900030119000c0119000d9
:104138004e009000de009000480add004800de00d6
:1041480000007200c808de000200400083804800ba
:104158000001be003e009000e3fd0700000f78005c
:104168001e0078000000e00062003a00ee009000b7
:104178003e00900062032000000141004e009000c4
:104188000000400080017800f01f200000806100de
:104198000000410068fc07003e00900011c0b30019
:1041a80031409800560037003e00900030119000d2
:1041b800c01190004e009000de009000490add001a
:1041c8004700de0000007200c708de000200400061
:1041d800838048000001be003e009000c2fd070039
:1041e800000f78001e0078000000e00043003a004d
:1041f8006e019000fe019000f0ff2f00f1ff2000fb
:10420800020278008301780000017800010078003c
:1042180002016200008061008000eb00c000dd0048
:10422800000020000004be006110b8000004740003
:10423800818474003e00900061032000808040006b
:104248004e0090004201dd00f01f200000006100d8
:10425800008040000afc07000001be0000002000aa
:1042680001002f0002027800030178008001780025
:104278000100780003026200000061008000eb008a
:10428800c000dd00000020000001be006120b80071
:104298000001710081817100020074008380740044
:1042a80060079800710798003e00900061032000a5
:1042b800808040004e0090004201dd00f01f200089
:1042c80000006100008040006e019000fe01900037
:1042d8002bfc07003e00900011c0b300314098004d
:1042e800070037000000000005003700000000004c
:1042f8000300370000000000010037000000000044
:104308001e0078004f04be000080fa00000006007e
:104318001200fa00400798005207980063079800b7
:1043280074079800050f98000000eb00000f780054
:104338004e00900090007800110798005e019000f0
:10434800ee0190001000200001002000800f5100b5
:10435800818f5900080036001e0090005009900017
:10436800e00990005e009000ee009000800f510080
:10437800818f590002003e002000200061003700b4
:104388007e0090008e089000e00f5000e08f5800eb
:104398000c0032000082eb008082eb007e0190006e
:1043a8008e0990001e009000cefe0700000f7800d6
:1043b8001e0078000000e000020032001e007800b5
:1043c800500037005e019000ee0190004e00900012
:1043d800f6fd070020079800310798002e0090008e
:1043e800be009000e00f5000e08f580043003200fc
:1043f8002e019000be019000100020000100200056
:10440800800f5100818f590002003a0020002000df
:104418003c0037002e019000be0190000080eb00a8
:104428008080eb00800f5100818f590002003a0014
:1044380010002000330037006022b8005e019000b1
:10444800ee0190001e009000a6fe0700000f780005
:104458001e0078000000e000020032001e00780014
:10446800280037001e00900010099000a009900055
:104478001e009000e0089000500890006200500074
:10448800e0805800800f5100818f59000e003100e4
:104498001e009000a00890001008900061004000e5
:1044a800e08048001e01900010099800210998003a
:1044b8001e00900040409000804078000104a00059
:1044c8001e009000414098002e019000be0190000f
:1044d80052079800630798001e009000500990004a
:1044e800e00990005e009000ee009000800f5100ff
:1044f800818f5900b3ff3e00010037000000000023
:104508000000eb000080fa00000006001600fa0028
:10451800000f9800120f9800230f98000e089000c3
:1045280090007800510798001e089000ae0890008f
:10453800e00f5000e08f580017003a005e0090002e
:1045480070019000800990002207980033079800b6
:104558002e009000be009000e00f5000e08f580041
:10456800080032005e00900050099000e0099000b9
:104578002e009000be009000800f5100818f5900de
:104588002e003e00100020000100200020079800a7
:1045980031079800290037001e099000ae099000e5
:1045a8000e08900081fd07006007980071079800c9
:1045b8006e019000fe019000100020000100200014
:1045c800800f5100818f590003003e001000200029
:1045d80001002000ef0037006e019000fe019000fe
:1045e8000080eb008080eb00800f5100818f590024
:1045f80003003a006e009000fe009000e5003700ce
:104608005e00900050099000e00990006e00900054
:10461800fe009000800f5100818f59000300360082
:104628006e009000fe009000da0037001e0990002e
:10463800ae09900022079800330798005e009000aa
:10464800a008900010089000e00f5000e08f58007c
:1046580002003a006000b800ce0037006000b800e1
:10466800008fbe002e019000be0190001e08900031
:10467800ae089000800f5100818f590044003a0025
:104688002e009000be0090001200200003002000c1
:10469800021f4000039748005e009000e008900069
:1046a80050089000be0f5000ae8f580003003e0027
:1046b8002000200001002000008fbe001e01be0067
:1046c8000e08900039fd07006007980071079800f0
:1046d8006e019000fe0190001000200001002000f3
:1046e800800f5100818f5900070032006e01900041
:1046f800fe0190000080eb008080eb00800f5100ed
:10470800818f590003003a006e009000fe0090006f
:10471800a00037006e009000fe009000e00f5000ef
:10472800e08f58001a0032005e009000700190007f
:104738008009900062079800730798006e01900046
:10474800fe0190001000200001002000800f5100a1
:10475800818f59000c0036005e00900050099000cf
:10476800e00990006e009000fe009000800f51005c
:10477800818f5900040036006e019000fe01900000
:1047880022079800330798006000b800008fbe0029
:104798001e00be00e00f5000e08f58003e003a00b7
:1047a8002e019000be019000028fbe00010037006c
:1047b8000000000012002000030020001e0f41002e
:1047c8005e9749005e009000e00890005008900055
:1047d800be0f5000ae8f58000b003e002000200096
:1047e80001002000008fbe002e009000be00900047
:1047f8001e01be00800f5100818f59000200360053
:104808006000b800630037001e01be000e0890006b
:10481800e6fc070060079800710798006e0090009a
:10482800fe009000e00f5000e08f580019003200a1
:104838006e019000fe019000100020000100200091
:10484800800f5100818f5900070032006e019000df
:10485800fe0190000080eb008080eb00800f51008b
:10486800818f590003003a006e009000fe0090000e
:10487800480037002e009000be0090001e01be00c8
:10488800800f5100818f5900c9ff3a006000b800bd
:1048980040003700000000000082eb008082eb003f
:1048a8001e01be005e0090008efd070040079800c4
:1048b8004e0090000000e0000b003a001e08900037
:1048c800ae089000e00f5000e08f5800060032005c
:1048d8001e02be001e099000ae0990005e00900006
:1048e80080fd0700400798004e0090000000e0009f
:1048f8001e003a005e0090001e01be007200980083
:10490800030898005e00900010099000a00990002c
:104918005e009000e008900050089000620050008f
:10492800e0805800800f5100818f590008003e0038
:104938005e009000a00890001008900061005000f0
:10494800e08058005e019000100998002109980045
:104958005e00900040409000804078000104a00074
:104968005e00900041409800090037004e0090001a
:10497800e10f500003003a000080eb008080eb005c
:10498800020037001000200001002000008fbe0048
:104998001e00be000080fa00000006001000fa00a9
:1049a8005007980062079800730798005e0090000f
:1049b80089fb07000000e000020032001000200020
:1049c800340037006e019000fe0190005e009000f8
:1049d8004bfc070010079800210798005e00900024
:1049e8001e019000ae01900012189800231898003c
:1049f8005e0090006003b000022020008000eb0001
:104a0800acfa07005e0090006003b0003007980021
:104a180010002000400798000000eb00000f78000d
:104a2800020037004e0090001e0f40005e0090000c
:104a3800500090009e0f50000f0036001e007800b6
:104a48006101b8001e009000ae0090000200400016
:104a5800838048005e019000924290004e029000d0
:104a68000001be00be00900005407800ce18070087
:104a78000000e000ebff32005e0090005000900064
:104a88001e00680000f0a7000000ea000000ea002d
:104a98004f00de000080fa00000006001000fa0057
:104aa8005007980062079800730798005e0090000e
:104ab80090007800210798006e019000fe01900098
:104ac800f0ff2f00f1012000800f5100818f590065
:104ad80014003e006e019000fe019000f0012000dd
:104ae80001002000020278000301780080017800ac
:104af8000100780003026200000061008000eb0002
:104b0800c000dd00000020000001be006120b800e8
:104b18000001710081817100e00f5100e08f5900a0
:104b280002003200200020008b0037005e00900059
:104b38006e019000fe019000720098000308980032
:104b48005e00900030019000c0019000028fbe000e
:104b58001e00be00e00f5000e08f580008003a0029
:104b68002e00900010407800e24f500004003600fc
:104b78002e00900050119000e0119000028fbe00ae
:104b88001e00be00e00f5000e08f580015003a00ec
:104b98006e009000fe009000c509de004b0add00a3
:104ba8004501de00020172002e00900040009000d6
:104bb8008000eb00800f5100818f590002003900fe
:104bc80020002000640037002e009000e0109000c4
:104bd800501090005e01900030099800410998003b
:104be800390037002e009000500090006101b80095
:104bf8004918dd00c710de00810070004910dd0093
:104c08003007980041079800220037005e009000a6
:104c18001e01be00e5fb0700008fbe001e01be009e
:104c28000080eb008080eb00800f5100818f5900dd
:104c380002003a0010002000470037001e01be00a5
:104c48001000200001002000800f5100818f5900c2
:104c5800060036002e009000e008900050089000f2
:104c6800be0f5000ae8f580002003e00200020000a
:104c7800390037006e019000fe0190003e00900060
:104c8800ce00900000005100818059006007980014
:104c9800710798006e019000fe0190003e009000a0
:104ca800ce009000800f5100818f5900d7ff31004e
:104cb8001e01be002e00900091fb07005e019000cf
:104cc80030099800410998005e0090001e01be005e
:104cd80012089800230898005e009000c008900011
:104ce80030089000e00f5000e08f580002003a00b2
:104cf80020002000180037005e0090003009900066
:104d0800c00990006e009000fe009000470add0088
:104d18004900de0000007200c908de000200400001
:104d2800838048005e01900030099800410998008e
:104d38002e00900061032000808040006e019000ea
:104d4800f01f200000006100808040005e0090009d
:104d5800510898000000eb000080fa0000000600ef
:104d68000e00fa0050079800610798005e00900056
:104d780090007800210798005e009000800890005d
:104d8800700090000002b0000180b0003007980069
:104d9800410798005e009000c0089000300890001d
:104da800e00f5000e08f5800070032003e019000ed
:104db800ce019000f0ff2f00f1012000800f51007c
:104dc800818f59000200360040002000b3003700f0
:104dd8003e019000ce019000f01f2000010020004d
:104de8000202780003017800800178000100780051
:104df80003026200000061008000eb00c000dd00db
:104e0800000020000001be006120b8000001710010
:104e180081817100e00f5100e08f590090003a0045
:104e28005e009000c00890003008900061004000cb
:104e3800e08048005e019000300998004109980020
:104e48005e009000a008900010089000e00f50004d
:104e5800e08f580012003a003e009000ce0090000b
:104e6800c509de004b0add004501de0002017200c3
:104e78002e009000400090008000eb00800f510051
:104e8800818f5900760039005e0190006000b800fb
:104e98003009980041099800400020007f00370041
:104ea8003e009000ce009000c909de00470add00f0
:104eb8004901de00020172002e00900050009000af
:104ec8000000e9008000eb0002027800030178008e
:104ed8008001780001007800030262000000610090
:104ee8008000eb00c000dd00000020000001be00d3
:104ef8006120b8000001710081817100e00f51004c
:104f0800e08f590056003a005e009000a00890001b
:104f1800100890005e0290000001be0004007800b6
:104f280022fb0700008fbe001e01be0010002000fb
:104f380001002000800f5100818f590002003e00bf
:104f480020002000550037001e01be000080eb0045
:104f58008080eb00800f5100818f590002003a00d9
:104f6800100020004d0037002e009000e00890004f
:104f780050089000be0f5000ae8f58002e003e0023
:104f88006e0090000000e00006003a005e0190000c
:104f98006000b800300998004109980040002000de
:104fa8003e0037005e009000a008900010089000b6
:104fb8005e0290000001be000400780053fd070067
:104fc800008fbe001e00be00e00f5000e08f5800aa
:104fd80002003a0070002000300037001e01be00b9
:104fe8001000200001002000800f5100818f59001f
:104ff80002003a0020002000280037001e01be00f1
:105008000080eb008080eb00800f5100818f5900f9
:1050180002003a0010002000200037001e01be00e8
:105028002e0090005dfe07000000e0000200320044
:1050380010002000190037005e0090001e01be001d
:1050480012089800230898001e01be002e00900048
:10505800abfa07005e0190003009980041099800fa
:105068005e0090003e019000ce0190007200980012
:10507800030898002e009000610320008080400003
:105088003e019000f01f2000000061008080400079
:105098005e009000510898000000eb000080fa00c4
:1050a800000006000a00fa0030079800410798003f
:1050b8003e00900090007800210798006011b80029
:1050c8003e00900075fe0700000f78001e00780073
:1050d8000000e00029003a000000eb0010079800eb
:1050e8003e009000c0089000300890000001be000b
:1050f8002e009000fcf90700000f78001e007800d1
:105108000000e0001c003a003e00900050089000ab
:1051180010407800fb4f4000050032003e00900030
:1051280050089000104078000004e00008003a00a1
:105138001e0090000000e800100798009e009000f4
:105148004e009000808f500003003a000b0037009b
:105158000000eb0010079800110020003e009000ae
:10516800fffe0700000f78001e0078000000e00036
:10517800dbff320001003700000000001e0078004d
:10518800e40f500002003a0070002000000f780081
:105198001e0078000080fa00000006000800fa00ef
:1051a80020079800310798003e0090007a004000e0
:1051b80023f807008000eb00008fbe002e0090004f
:1051c80010407800e34f500008003a003e0090007d
